:4000000000800020110000002D0300002D03000008B5044B04481A68026000F01DFD00F087F900BFFA460040BC76004010B5054C237833B9044810B10448AFF3008001210E
:40004000217010BD2881FF1F000000008422000008B5064B1BB106480649AFF300800648016811B1054A02B1904708BD00000000842200002C81FF1F0881FF1F00000000ED
:40008000034B187808B900F0ABBF00F0FDBC00BF4481FF1F002321B101390A5C9B18DBB2F9E718467047000008B50A4B002019680968FFF7EFFF084A13681978081A00F0BA
:4000C000FF028A4204D00020BDE8084000F07CBE08BD00BF0C81FF1F1081FF1F10B5FFF7E3FF00F069FD00F02BF8FFF7C9FFB8B90446012000F072FEFFF7C2FF20B9013485
:40010000A4B2652CF5D101E0642C11D10B4B402247F230501A7000F085FD43F6982005E041F2883000F07EFD40F6C41000F080FD00F02CFD00F0C0FAFEE700BFFA460040C8
:400140002DE9F043DFF8DC91DFF8DC8199F800306F4F43F00E0089F8000098F800106D4E41F00E0288F800203C7885B044F00E053D703378684D43F00E0030702978674CCF
:4001800041F00E022A70237843F00E00207099F8001041F0010289F8002098F8003043F0010088F80000397841F001023A70337843F001003070297841F001022A702378F6
:4001C00043F0010020700A2000F008FE99F8001001F010028DF8002098F8003003F010008DF80100397801F010028DF80220337803F010008DF80300297801F010028DF8CF
:400200000420237803F010008DF8050099F8001001F0FE0289F8002098F8003003F0FE0088F80000397801F0FE023A70337803F0FE003070297801F0FE022A70237803F0CC
:40024000FE0020700A2000F0C9FD99F8001001F010028DF8082098F8003003F010008DF80900397801F010028DF80A20337803F010008DF80B00297801F010028DF80C2078
:40028000237803F010008DF80D0099F8001021F00E0242F0020389F8003098F8000020F00E0141F0020288F800203B7823F00E0040F002013970327822F00E0343F002002E
:4002C0003070297821F00E0242F002032B702078002320F00E0141F0020222701A4602A8195C1DF8030008B1012102E00029FBD10221481E00FA03F001331218062BD2B257
:40030000EDD1511E064AC8B2107005B0BDE8F08306500040075000401A5000401B5000404481FF1F0450004005500040FEE7000008B51249124B4A1C1AD053F8106C53F82F
:400340000C0C53F8085C0022AA4200EB020403D0B45884500432F7E753F8040C0022824203D00025A5500432F9E701391033E2E701F04CFFFFF7B2FEFEE700BF00000000E0
:400380002026000008B5104A104B1A60986840F400729A600023032B96BF0D4A0D4952F823100D4A42F823100133302BF3D10B490B4B08780B4918700A6000F017F80A48C3
:4003C0000022026008BD00BF0004FA050CED00E0000000002D0300000080FF1FBC7600400481FF1F08ED00E00081FF1FF8B572B60024544B062202FB043500212868AA88E9
:40040000013401F032FF072CF3D1002319464E4A9858443202EB4104C6B220F0FF070022D5B2AE4209D004EB420C14F812509CF801E0013205F807E0F2E70433C0B2442B94
:400440000144E4D1414E347844F002023270357C3F4C45F0020030743E48017841F04006067022783C4E42F010052570726834683A490C604A60314651F8085F384C4A68FE
:4004800025606260324652F8125F098925632181516812896163314651F81C5F22874A68098944F8A05C44F89C2C24F8981C56F8264F2C4D2C4A76682C606E6011782B4CD0
:4004C00041F0080515702A4A012603211B25267011809570274A06261670A2F580755221254E29703178254A07251170244900220A800D70234D48262A70AE700A704A71BA
:40050000214A02211170214A0235117841F001011170812222701E4C1E49227802F0070412090C704A701C491C4A0B701C49034653F8040B8B4242F8040BF9D11B8813807B
:40054000F8BD00BF88220000B422000003500140C2430040A04300400624000002510040C051004032510040224300400048004080400040004300400F010049A14600408A
:40058000044000400640004001400040A2430040CF0100496E58004076580040B0430040AC43004000470000431E10B50246062B0DD8DFE803F0060E2304080A21001648AB
:4005C00008E0164B1BE0164804E0164802E0002000E015484178007841EA0020022A04D0032A07D0012A15D104E0020242EA102398B210BD00BA10BD0C4B00E00C4BD87884
:400600009C7859781B7840EA036040EA042343EA0140E3E710BD00BFD2FF0300C1FF0300D6FF0300D4FF0300C5FF0300D8FF0300C9FF030070B50220FFF7B6FF064603208E
:40064000FFF7B2FF711C00EB01260220FFF7ACFF0024013001022546B14209D211F8010B421ED3B20419FD2B98BF0125E4B2F3E70220FFF799FF0F49421C1302DB088E4286
:4006800001D0F60801E04FF40046B34206D203F19041087801330219D4B2F6E7054864420278E4B2944201D0062070BD002DFBD0002070BDC0FF03002DE9F043ADF2A44D60
:4006C00000F0FCFA10B1002000F07EFB02A800F009FB10B1002000F077FBB6480368196800230A4622B112F8014DE318DBB2F9E742681078C31A03F0FF02824200D111B997
:40070000002000F061FBFFF795FFAB490B7803F0C002402A0B4601D000283ED000271F7000F0BAF962B6B946002692A84FF4967101AAFF2300F0DEF90028F6D1BDF804205F
:40074000062A40F283819DF84842012C40F07E819DF84A129DF84B5292AB41EA052505F1070E5B1996455C79197900F26D819A79172A40F06B812B1D9BB233B10DF24722F1
:40078000D25C013B801880B2F6E7404241EA042481B28C4240F05C8108E08020087000F015FB29B00DF5806DBDE8F0839DF849229DF84C82A2F131030A2B00F21781DFE8B5
:4007C00013F00B001A00150133008D0015019100A2003300B0000501002F00F03781002D40F03481FFF726FFD0F1010038BF00208DF84C02DBE0002F00F02881012D4FF029
:40080000000440F0EC80B8F1030F00F2E880FF2303228DF84C428DF84D4225468DF84E328DF84F220424E3E0342A12D1002F00F00D81032D40F00A81A8F140063F2E8CBFD4
:400840004FF490761026DDA80021324601F00DFD05E0002F00F0FA80022D40F2F780033DDDAB2A4698190DF24F2101F0F5FCA8F1400072193F2897B203D800F099FA1024AA
:4008800001E04FF49074A74240F0AB809DF84E129DF84D62B8F13F0F46EA012511D8B9F1000F0ED149464FF490724AA801F0DDFC0320FF214AAA4FF4907300F029FA4FF066
:4008C00001093B4640462946DDAA00F021FA0127002800F0898000260A2588E0002F00F0B58021E7002F00F0B1807419B4F5967F00F2AA80DDA988192A4693A901F0ACFC61
:40090000A6B2002573E0002D40F0A0802B484AAF93AC03C887E8030084E803000127082466E0002F00F09280032D40F08F809DF84E429DF84D12A8F140023F2A41EA042528
:400940000AD82D01002310221D4811184C5D013A2344DBB2F8D126E005EB08231C024FF480720023013A105D1918CBB2002AF9D1B8F13F0F17D808F5103405EB0420410185
:40098000545C01321B19202ADBB2F9D1B8F1030F09D1FF2D07D10B4D0B4C2878191A2378CA1A02F0FF035D428DF84C52002501241EE000BF0C81FF1FFA46004034240000A5
:4009C000FF7F0040D0FF0300D1FF0300FFF732FE10B920488025057000F0F8F936E0042506E0012700262FE006468AE70525002401218DF849520022251DADF806408DF89F
:400A000048128DF84A428DF84B22ADB20DF24720415D6B1E52189DB292B2002DF6D1504281B293AA11550D0A0DF24D2317200DF24E211D550855073492A8A1B20DF106024C
:400A4000962300F038F870E60325D0E70425CEE70825CCE7FA46004008B50A4B1A7802F0C00080280CD1002119700120FFF79CFD30B10120FFF798FDBDE80840FFF792BD36
:400A800008BD00BFFA460040024B1878C0F30010704700BFC151004008B562B60020022100F07CFB014B01221A7008BD4581FF1F012000F01DBCF8B507460E4615460A24E8
:400AC0000220394640225C4300F0D4FB022000F0B3FB30B92CB10120013C00F07FF9A4B2F4E7022000F0A8FB10B12E800020F8BD1020F8BD2DE9F0410A245C43224B8046F3
:400B000018780F461646A8B1254600F085FB30B92DB10120013D00F061F9ADB2F5E700F07BFBA8B100F07EFBFFF7C2FF164900220A700DE000F076FB50B100F06DFB38B12B
:400B4000FFF7B6FF04E054B100F048F9013CA4B2012000F071FB01284FF00100F3D100F06BFB01280AD14146402F34BF3A46402200F0D2FB30800020BDE8F08100233380D5
:400B80001020BDE8F08100BF4581FF1F024B1A7842F080001870704774650040044B187800F01001CAB212B1024B1B88F6E7704765650040A86A004010B5154B1A7802F0BB
:400BC000C00040F00B01197093F820404EF6602144F001020F4C83F8202023780E4A43F0010020700D4B1180A2F880100C4A002147F230501880117000F02CF8237843F07E
:400C00001001217000F02AF8BDE81040FFF7C6BF7465004095650040086A0040486A004085650040014B1880704700BF886A0040014B1880704700BF486A00400000000097
:400C40000230800800F0058000BF013800467FF4FCAF7047EFF3108072B6704780F31088704700BFAFF30080012010B500F060F9072809D04FF0FF3417E00E4B187800F0C5
:400C80000201CAB2002AF5D102210B4800F0ECF80228F2D1074C237803F00200C1B219B9012000F0AFF8F5E7002400F07FF9204610BD00BF224700405781FF1F08B500F008
:400CC000C1F800F053F958B9FFF7CEFF48B900F0B9F800F04BF918B9BDE80840FFF7C4BF042008BD38B5044600F0ACF84CB100F03DF9054638B9054B1C6000F057F9284691
:400D000038BD012038BD042038BD00BF4881FF1FF8B505460E4617461C4600F027F9F0B922462846394600F0B9F80728044613D11D4B1A7802F00200C1B219B9012000F08E
:400D400061F8F5E71C7804F00202D0B210B11B789B0806D04FF0FF3400F028F922E0042420E0124C284622786378314600F0BCF807280446F0D10C490A7802F00200C3B2E0
:400D80001BB9012000F03EF8F5E70C7804F00202D0B20028DED009788B0814BF4FF0FF340024D9E72046F8BD224700405781FF1F044B1A7842F010001870197C41F01002EE
:400DC0001A747047AC43004001BE7047024B1A7842F0010018707047F646004010B50446B4F5004F064B05D91868FFF729FFA4F50044F5E758686043BDE81040FFF720BF82
:400E00001481FF1F024B197A4843FFF719BF00BF1481FF1F054B00F01F001B6800F1100253F8220043F82210704700BF08ED00E000F01F0000F16043490103F56442C8B245
:400E40001070704708B5FFF705FF064B1A7842F0080119701A7C42F008011974BDE80840FFF7FCBEA043004070B506460D460024E3B2AB420CD207480178CB0703D40120E5
:400E8000FFF7C0FFF7E7044A137833550134EFE7284670BD224700402047004030B5104B1C7804F00204E4B2ACB10E4CB6252570D5252570022525701B782B40DBB263B9CB
:400EC000207098B2904204D2CC5C064801330470F7E7072030BD042030BD092030BD00BF224700402047004070B50F4D2C7804F00204E4B2A4B10D4CB6262670D8262670C1
:400F0000052626702D7805F00205EDB255B92070080AC9B22070217007202270237070BD042070BD092070BD22470040204700400C4A137803F00201CBB273B10A4BB62150
:400F40001970E12119700E211970127802F00201CAB222B9187007207047042070470920704700BF224700402047004038B5FFF771FE0C4B197879B901250B4A1D701468AF
:400F80002C400AD0146824F00104146000BF00BF00BF5D600C4600E00424FFF75FFE204638BD00BF4C81FF1F0400084010B5FFF751FE094B002259681A70012908D10749CC
:400FC0000C6844F001040C6000BF00BF00BF5A60BDE81040FFF742BE4C81FF1F04000840024B1878C0F30010704700BF21510040F8B5FFF72FFE384B07461A78012542F06D
:4010000001001870197C022641F001041C74334B334C1D7003F8946C13F88D2C02F07F0003F88D0C0020FFF7EDFE21782D4801F0F9032370027802F0DF0101702378284601
:401040002B432370FFF7DEFE2820FFF7DBFE2648027802F07F010170037803F0BF0202702078304320703046FFF7CCFE21781F4A41F0040323700024147038465470FFF79C
:40108000EDFD17201A49FFF7C5FE17200721FFF7CFFE15201749FFF7BDFE15200721FFF7C7FE18201449FFF7B5FE18200721FFF7BFFE20461149FFF7ADFE20460721FFF73D
:4010C000B7FE28460E49FFF7A5FE28460721BDE8F840FFF7ADBE00BFA54300409D6000409443004012600040F851004084600040EF170000ED1700002D1600008517000086
:40110000B9170000184B012210B51A70174B4FF400041C604FF080741C601A6002221A60134B00241C70134B01B1032212491A70124B0870124A002012491870124B1070E5
:401140000870124A12491870124B10700870802203201870012003F8202CFFF771FD0E480421017010BD00BFEC81FF1F00E100E07281FF1F096000406C81FF1F7181FF1FB1
:401180006D81FF1F7081FF1F5C81FF1F6F81FF1FE581FF1F286000401260004070B5074C064623780D461BB9FFF722FF0120207030462946BDE87040FFF7A4BF5481FF1F39
:4011C0000C4B01220C491A7000200C4A0C4B08700C49107018700C4A0C4B08700C49107018700C4B087080220320187003F8202C704700BFEC81FF1F7281FF1F7181FF1FED
:401200006D81FF1F7081FF1F5C81FF1F6F81FF1FE581FF1F28600040014B1878704700BF7181FF1F034B187810B1002218781A70704700BF7081FF1F024B0C2202FB0030D4
:40124000407870477881FF1F0138C3B2072B0CD81901074ACBB2985C511C5B5C00F00F0243EA0220811E88B270470020704700BF0C600040431EDBB2072BF0B52FD8184ED0
:401280001C010C27E3B207FB0064E788154DBFB2C7F50077BA421D4403D9E288C2F50074A2B20C2404FB0066F47844EA12260E4C1E55D6B201341E5549B9094A0C2101FB6A
:4012C0000020002141704079084A9854F0BD0024A6B29642F1D20E5D01342E70F8E7F0BD7881FF1F886000400C6000400E600040431EDBB2072B0AD8054A0C2101FB002044
:40130000002141701B014079024ADBB2985470477881FF1F0E600040F8B5431E0D46D9B207290746144616D8BDB10A010C4ED3B29E19FFF789FFA04228BF204684B2002200
:4013400090B2A04203D23178A9540132F8E73846FFF7CEFF02E0002400E02C462046F8BD886000401B4B1C491A880878821891B219801A491A4BCAB2188880B278B1194ADB
:4013800091420BD05A68107801F8010B5A68501C58601A88501E82B21A80EBE708220E490B78082B00D05AB10F48017881F080030E4903700F200E4B08700220187004E06C
:4013C0000A490B4B022008701870034909480A7002707047E881FF1FE581FF1F006000406081FF1F086000406E81FF1F5D81FF1F7281FF1FE681FF1F074B02221A700749A1
:40140000074B80200F2208701A700649064A002008701070012070477281FF1F6E81FF1F5D81FF1FE581FF1FE681FF1F10B5154B1A78154B02F00F00811E1888CAB21118D9
:4014400088B212491880124B188880B270B16AB1586811F8014B013A04705868D2B2013058601888013880B21880ECE709490A4B0A701A780B2182F080001870074B197039
:4014800010BD00BF29600040E881FF1F006000406081FF1FE681FF1F6E81FF1F5D81FF1F064A0748062313700370064B064880210022197002700120704700BF7281FF1F60
:4014C0005D81FF1F6E81FF1FE681FF1F054B9A683AB19968044A08709868118841800020986070476081FF1FE881FF1F08B50A4B1A7832B11978094A41F0800000211070EE
:401500001970074B002018700120FFF7DFFF054903220A7008BD00BF5C81FF1F086000407281FF1F5D81FF1F08B5054B002201201A70FFF7CBFF03490320087008BD00BF0D
:401540007281FF1F5D81FF1F074B1878042805D0062805D0022805D1FFF704BFFFF7E4BFFFF7C4BF704700BF7281FF1F08B50849084B1A880878821891B21980064B0020BC
:4015800018700120FFF7A2FF044903220A7008BDE581FF1FE881FF1F7281FF1F5D81FF1F08B50B4B1878042807D0062809D002280DD1BDE80840FFF7D9BFBDE80840FFF70F
:4015C00035BF0320FFF782FF024903220A7008BD7281FF1F5D81FF1F08B5114B1A781A701878020602D50F4B187008BD0220FFF76DFF0D490B7803F06002202A05D0402A1B
:4016000006D042B900F080FC04E000F0D7FD01E000F0C8FD10B903490320087008BD00BF286000405D81FF1F0060004008B5224B1A78D0B200F01001CBB2002B3BD052B2A1
:40164000002A0ADA00F00F01012934D1FFF7C4FF1A4B187800060DD508BD00F04001CBB213B1FFF771FF05E000F02000C2B212B3FFF796FF104A117809061CD4104B114AA9
:401680001878117841EA00030F4803700278934211D10A49084B0A78187800F08000C0B220B90A781A70197801F00F02034B18788242EED108BD08BD286000405D81FF1F27
:4016C0006E81FF1FE681FF1F29600040054A00231380054A916819B191680B7090684380704700BFE881FF1F6081FF1F08B50C490C4B042280201A700870FFF7E7FF0A4BEB
:401700001A78581E094B0178188841EA022281B2914288BF1A80064B0B221A70012008BD6E81FF1F7281FF1F076000406081FF1F5D81FF1F10B50F4C238898B210B9FFF77C
:401740005BFE14E00C490D4B022200200A701870FFF7BCFF0A49481E0A78037843EA0221228890B2884288BF2180FFF7FBFD012010BD00BF6081FF1F7281FF1F6E81FF1F1C
:4017800007600040094B0A481B78027B02F00301012903D0C37B83F08002C273012141730448037803F0FE02027070470E6000407881FF1F0B600040094B0A481B78027E8F
:4017C00002F00301012903D0C37E83F08002C276012141760448037803F0FD02027070471E6000407881FF1F0B6000407047FFF7E7BC000008B50B4B1878411EC8B200F091
:4018000087F9094A0949137800EBC3004269CB5C02EBC3004268064B506A01781980586008BD00BF7181FF1F046000405E81FF1F6081FF1F08B50D4B1878411EC8B200F0A7
:4018400067F90B4A0B49137800EBC3004269CB5C02EBC3004268D369074A597813F8020B40EA01211180536008BD00BF7181FF1F046000405E81FF1F6081FF1F10B5164C99
:4018800000231648238001784A1ED0B200F040F91349144B1B780A7800EBC2004169D2B9114A013B1078DAB201EBC001022A496811D80E4A01EBC300127811F833109142F8
:4018C00009D30C235A4341688B1858688A5A996860602280A16010BD6081FF1F7181FF1F04600040036000405E81FF1F0260004010B53A4B3A4A18781178090634D5511CBE
:401900000B785A1E052A67D8DFE802F010182766660334480178212902D1FFF76BFF07E00378222B58D1FFF785FF01E0FFF7A6FF2D490B8898B200284ED00AE000284BD160
:401940002A4B1878002847D127480122284902804160BDE81040FFF7EDBE00283CD12248012202802349F3E713781A0634D4224A1178092905D02FD30A290DD00B292BD1EB
:4019800022E0FFF77BFF184B1A8890B2002823D0BDE81040FFF7AABEF0B914480178D9B9441C2378124A1370144B14781878844201D2197004E01978012901D912781A70EC
:4019C000BDE81040FFF76CBD30B908480378012B02D80278074BF2E7002010BD0460004000600040036000406081FF1F02600040EA81FF1FEC81FF1F01600040EB81FF1FC0
:401A00007FB5134B02466D4603F11006186859682C4603C40833B3422546F7D1B2B1222003210C4B1070517013F8011B04AC04EB111010F8100C01F00F019070601810F845
:401A4000101C054802F8041F8342EDD17FBD00BF3C240000000100490801004930B5012202F10F031801092AC3B23BD01F4903F180440C2004F5C14500FB021428701C4924
:401A80006579591825B12479240658BF082000E08020087017490C245818144904FB02110C890132C4F3072404700C891248E4B218180470CC881148E4B218180470CC8812
:401AC0000F48C4F3072418180470CC880D48E4B2181804700C48D2B21818CB88C3F307210170BDE70949FF220A7030BD7881FF1F0E6000400C6000400D60004086600040BA
:401B00008760004084600040856000400A600040084B09491A7801EBC20359680B7A01F10802834203D902EBC000406870470020704700BF6C81FF1F50240000F8B53D4B6A
:401B40001A78002A74D01878411EC8B2FFF7E0FFC368057A08330020A84269D013F8082C3549364C8E5CA45CA6425DD0895C13F8074C8C4258D1324909788A4254D113F88F
:401B8000067C07F07F02561E3401E1B213F8056C2C4C17F0800F4FF00C0706F0030607FB024406D001276770BE4214BF0D26072605E000276770012E14BF092605266671AE
:401BC000214C01260F190C2454433E701D4E33F8047C3219178113F8067C177113F8057C37550026D6701689184CC6F307260C1926701689164CF6B20C192670D688154C5B
:401C0000F6B20C192670D688134CC6F307260C192670D688114CF6B20C192670104C0C19D188C1F3072222700130C0B2083393E7F8BD00BF7181FF1F5E81FF1FE481FF1F20
:401C4000046000407881FF1F0E6000400C6000400D6000408660004087600040846000408560004008B5064B1878411EC8B2FFF74FFF20B14268137900EBC300406908BD2E
:401C80007181FF1FF8B500210C244C43514D013100232A1909292B55937002F108045370D370537113819372EED118B14A484B4A037013704A4B1978002900F08A801C78B8
:401CC000601EC0B2FFF724FF4268D37903F04001CCB2444B1CB11C7844F0010102E01A7802F0FE01047A19700122C36800210833A14243D013F8065C05F07F06B24239D11C
:401D0000344E0C2707FB0266B6F808E033F8047C1FFA8EFCBC4538BF378113F8086C2E4FBE5D13F8077CB74224D113F8056C15F0800F284D4FF00C0706F0030607FB02552E
:401D400006D001276F70BE4214BF0D26072605E000276F70012E14BF092605266E710C2555431C4E13F806EC771987F804E013F8057C77550131C9B20833B9E70132092AC4
:401D8000B3D1C36800220833A2420DD013F8065C0C2605F07F010F4D13F8080C06FB015101328872D2B2EEE7FFF75CFF0E4B00221860012307490C2000FB0310C280018930
:401DC00001335218092B92B2F4D1BDE8F840FFF745BEF8BD7881FF1F5E81FF1FE481FF1F7181FF1F6F81FF1F7481FF1F124B197801F07F014A1ED0B207281AD80301DAB2BB
:401E00000E4B0C2000FB0130817841F0010300218370C170437843F0020141700079084B10F0800F01D08D2100E08921D154FFF737BB0020704700BF046000407881FF1F1A
:401E40000E60004010B51A4B187800F07F035A1ED2B2072A2AD817490C2000FB03139C78120104F0FE01997000241349DC70D2B2545C04F07F045454597801F0FD015970F1
:401E800019795B7811F0800F0C4905D0012B01D1505407E00D2004E0012B01D1082000E009205054BDE81040FFF7FABA002010BD046000407881FF1F0C6000400E600040F5
:401EC00010B50C4B0C481C7801784A1ED0B2FFF71FFE43681879A04209D944B9074B084A19780848117001780120197010BD002010BD00BF046000407181FF1F5E81FF1F18
:401F0000E481FF1F0260004038B5804B00221A807F4A8048117811F0800F00F08F8001780A2900F23481DFE811F05D00320132013201320132010B0032017D003201810079
:401F4000754B197801290AD174487549027801EBC2035868122342686C48426012E01878022814D16F4B1878FFF7D2FD002800F00E814268654842604168CB784268917892
:401F800041EA03230380BDE83840FFF7D3BB1A78032A23D1644B002262490878904202D80A7842B911E018780028F9D01878511C1B18CAB2F0E75B495C4A0878117C8142C5
:401FC00003D15B48FFF71CFD594B1878002800F0DE8019784D4A11805360D4E7BDE8384000F0ECB8117811F0030211D0022A40F0CE8046494F4B0A8018784F4A00F07F0371
:402000000C2000FB032398784C4B0022187006E03E4902234A480B800078484B18705A704B60B0E701221A80464805E0012241481A800278444988185860A4E70378581E63
:402040000A2800F2A480DFE810F03800A2005100A2000B00A200A200A2000F00A2002600304B3A49187881E02E4D2D78ECB25CB934480278944200F0868035490570012024
:402080000870FFF7FFFD7EE0631ED8B2FFF740FD0028EDD17BE0FFF713FF002877D0254C2C4A24782A4B012114701970FFF746FD25482949025D0A5565E0127802F00301A0
:4020C000012955D009D3022961D1164B187800285DD1BDE83840FFF7B5BE124A1178012955D117490B7803F0FD003FE0107800F00302012A3CD031D3022A48D109490B7892
:40210000002B44D1BDE83840FFF770BE6081FF1F0060004001600040036000406C81FF1F50240000026000400E250000DA2500003382FF1F046000407881FF1F5581FF1F66
:402140006F81FF1F7181FF1F5E81FF1F5C81FF1F7081FF1F6D81FF1FE481FF1F0D480278012A14D10C490B7843F0020008700AE00A4802785AB90378094A0648D15C0078BD
:4021800021EA0001D154BDE83840FFF789B9002038BD00BF026000406F81FF1F046000407381FF1F034B1878010644BF024909780020704700600040016000400F4B1878A9
:4021C00000F0030101290CD002290DD10C4A0C2110780C4A00F07F0301FB03200830837803E0074B1B7800E0002307490A68D05C032801D1FFF77CBB00207047006000405D
:40220000046000407881FF1F7481FF1F38B50E4D0E4B0024E81A8510AC4205D00B4951F8242090470134F7E700F0E0F90849094A541AA5100024AC4205D0054B53F82400B0
:4022400080470134F7E738BDF8250000F8250000F82500000026000010B50023934203D0CC5CC4540133F9E710BD82180346934202D003F8011BFAE77047000040260000C2
:40228000EE0000000000000010510040100040510040300000000140001000140140000800400140000A004C01400002005001402000000001450040065200400165004041
:4022C0004014014025150140011701400119014003400140024101400242014002430140034701400348014004490140024C014002500140015101407E0204F014101902FA
:402300001C0C64107C40852D100124012E0130014030410449FF4AFF4BFF4DA04F045018528058045A045B045F01604062C06440654066C068C06AC06CC06EC08106900185
:4023400093019D04A506B104B201B301B702B802BE04C020C104C5D2C612C82FC9FFCAFFCBFFCDAFCE0FCF04D018D425D804D904DA04DB04DF01E040E2C0E440E540E6C0B2
:40238000E8C0EAC0ECC0EEC009010E8010221A801E801F042450268027202C20350136803D0240104280468047204D014F045420550156805C405D015F0467087002710144
:4023C0008240C218C405CA40CC90CE80D0A3D6D0D820EE0AEE0A33803640CC30A640A780A640A780A640A78008080F40C20CAE40AF80EE505B408340D480E680AC08AF4034
:4024000010011A01000AF000000000000000100000100000000000000000000000000000C000100000100000000000000C020200020000006970122E00140101303132336F
:4024400034353637383941424344454600000000010000005824000001000000DA250000010000006824000001000000B1250000020000008A240000010000009C2400002E
:402480000000000088240000030000000103400003000000820340000300000001000000A424000000000000D824000000000000CC240000000000000000000001000000A8
:4024C000E424000001000000C3250000410000005582FF1F9682FF1F41000000F281FF1FEE81FF1F240005FF0900A1010900A1010900150025FF750895409102090015005D
:4025000025FF750895408102C0C000000203040309042C0343007900700072006500730073002000530065006D00690063006F006E0064007500630074006F0072002A0345
:4025400043006F006E00660069006700750072006100740069006F006E002000300078003000300030003100220349006E0074006500720066006100630065002000300074
:402580007800300030003000310026034B0069007400500072006F006700200042006F006F0074006C006F006100640065007200000902290001010280FA0904000002030A
:4025C00000000309211101000122240007050103400001070582034000011201000200000008B4043BF1000101048001F8B500BFF8BC08BC9E467047510000008503000052
:40260000F8B500BFF8BC08BC9E4670472D000000202600000881FF1F2000000078010000000000007C220000802200000000E02EC05D00001800000000366E010000000040
:40264000000000000000000000000000000000000000000000000000000000000000000000000000000000000000000000000000000000000000000000000000000000005A
:40268000000000000000000000000000000000000000000000000000000000000000000000000000000000000000000000000000000000000000000000000000000000001A
:4026C00000000000000000000000000000000000000000000000000000000000000000000000000000000000000000000000000000000000000000000000000000000000DA
:402700000000000000000000000000000000000000000000000000000000000000000000000000000000000000000000000000000000000000000000000000000000000099
:402740000000000000000000000000000000000000000000000000000000000000000000000000000000000000000000000000000000000000000000000000000000000059
:402780000000000000000000000000000000000000000000000000000000000000000000000000000000000000000000000000000000000000000000000000000000000019
:4027C00000000000000000000000000000000000000000000000000000000000000000000000000000000000000000000000000000000000000000000000000000000000D9
:402800000080002011280000818700008187000008B505F0B7FF000010B5054C237833B9044810B10448AFF300800121217010BDC084FF1F00000000A4C9000008B5064BD2
:402840001BB106480649AFF300800648016811B1054A02B1904708BD00000000A4C90000C484FF1F0881FF1F000000007FB5204A03466D4602F11006106851682C4603C42F
:402880000832B2422546F7D18BB31A484FF00304017801290ED1282100224C2019705C704521422418719C70DA705A719971DA71082003E022221A705C700220441C0E4AD9
:4028C0001B1912F8010B04AC04EB101111F8101C00F00F0003F8011C201800211970997010F8100C0549587004338A42E9D17FBDA8C90000E484FF1F0001004910010049C9
:4029000010B5224C012009F07BFF2378581E082838D8DFE800F0050D13191F37252B310004F0D4FC08B9002010BD0220207010BD04F056FD0028F6D0032124E004F0A0FDD4
:402940000028F0D004211EE004F0F4FD0028EAD0052118E004F000FE0028E4D0072112E004F07AFE0028DED008210CE004F0B6FE0028D8D0092106E004F014FF003018BF92
:40298000012010BD01212170022010BD0C81FF1F37B500238DF8073062B609F0C1FE02F071FB03F067FE8A48027812B9894C012121700578032D02D1082008F0CBFD844BB5
:4029C0001878012802D10C2008F0C4FD01F0F6FF02F056F900F08AF902F064FC03F032F802F0B2FC7B4900227B48794C4A70FFF73DFF794806F0BCFE25780D2D10D109F041
:402A000011FF0A2009F07EF9744B18788DF807009DF80720012A03D104F04AFF03F028FF002407F069FC054628BB69490B780D2B23D1601C84B2012009F050F940F6B832BB
:402A400094421BD99DF8071039B901258DF8075004F02EFF03F00CFF01E08DF8075008F0C9FE014620B99DF807000A4609F0DCFE584B07249C70002400E00446554DA87888
:402A80000728CED801A252F820F000BFAD2A0000DB2A0000ED2A0000072B0000232A0000752B0000E12B0000A92C00004849087801280BD00D781F2D08D00B780D2B05D044
:402AC0000A78032A02D00978112901D1002000E0012009F09BFE012012E006F015F9012801D10222AA7002F007FC9AE79DF80700022105F0BFFF07F097FC07F01DFC032020
:402B0000344DA8708DE706F049F8012889D19DF807500220012D0DD12D4B1A780D2A09D106F0A8F801F0C6FF01F0B2FF07F0E2FC062107E006F09EF8042006F09BF802F09D
:402B400084FF0521224D23482B788170012B08D02A780D2A05D02978032902D02878112801D1012000E0002009F050FE194B00255D7056E7164D2B78012B0BD02A781F2A4F
:402B800008D029780D2905D02878032802D02D78112D01D102F032FC02F080F801F04AFE02F08AFE02F0A8FB02F06AFE05F0FCFF084B10B95A78012A01D10321997006F015
:402BC000A3F800287FF42DAF00F0D8F8072097E7E484FF1FDC84FF1F6897FF1F008000403B4B1D78012D0BD018781F2808D01A780D2A05D01978032902D01B78112B01D1DC
:402C000002F0FCFB012005F0D9FF012801D105F027F8022005F0D2FF012801D105F046F805F0C2FF01282B4D02D06878012801D10322AA7006F068F810B9264B0721997094
:402C400003F0F6FD08B103F04DFD03F0EBFD08B103F090FD204D2878012803D01F4A1178012902D1012009F0CBFD1A4DEB78012B17D1FFF745FE1A4A0228107011D0002163
:402C8000E97030B917483B220378451C02FB035000E0154803F0D2FD04F0ACFD11480121017002F0EDFDBCE605F024FF07F0CAFB07F05CFB064A00201178A8700D297FF408
:402CC000B0AE09F0A3FD07F017FB0028FBD0A8E6E484FF1FDC84FF1FFC84FF1FF285FF1FE796FF1F0C81FF1F0D81FF1F1A4A1B480023212113700170194A1A4913700B7046
:402D00004B708B70CB70184B187888B9174B187820F00E0141F002021A7013F8010C20F00E0141F0020203F8012C0121104A10E010490A7822F00E0343F00200087011F8EA
:402D4000012C22F00E0343F002000B4A01F8010C01211170117170471599FF1F1D99FF1F1499FF1F1999FF1FDC84FF1F6350004008380A421150004000240A42154B18785E
:402D800098B915490A7822F00E0343F0020008704A7822F00E0343F0020048708A7822F00E0343F00200887070470C490A7822F00E0343F0020008704A7822F00E0343F078
:402DC000020048700A7922F00E0343F002000871704700BFDC84FF1F62500040105000400F4B1A7842B90F4B197821F00E0040F0020119700C4808E00C48027822F00E0167
:402E000041F0020303700A480022027000BF00BF00BF0122027000BF00BF00BF704700BFDC84FF1F625000400C380A421050004004240A4230B51A4B1A78BAB9194C1A4854
:402E4000257825F00E0343F00201184B2170184C1A7025780121057019701A702578457019701A7022788270197030BD1148124B017821F00E0444F00205057000240F484C
:402E80001C70027808490A7001221A701C7005784D701A701C70007888701A7030BD00BFDC84FF1F62500040E084FF1F0C380A4228380A421050004004240A4220240A4240
:402EC000420800F00103D00701D50133DBB25008C10701D5591CCBB24208D00701D50133DBB25008C10701D5591CCBB24208D00701D50133DBB25008C10701D5591CCBB2FE
:402F0000420801D05A1CD3B21846704710B52F4B2F4918702F480278002A2AD12E4B2F481A7009782E4C0170012119701A70247804702C4C19701A70247804702A4C19704C
:402F40001A7024780470294C19701A7024780470274C19701A7024780470264C19701A702478047019701A70234A12780270197010BD224B002018700C78214901220C7080
:402F8000174C1A70187024780C70164C1A70187024780C70144C1A70187024780C70134C1A70187024780C70114C1A70187024780C70104C1A70187024780C701A701870C6
:402FC0000D48007808701A7010BD00BF0001002000200022DC84FF1F0C380A4208380A4204200022082000220C2000221020002214200022182000221C20002204240A42C7
:4030000000240A4210B50D4B0446187808B90C4900E00C490A7822F00E0343F00C0008702078FFF773FF6078FFF770FFA078FFF76DFFE078BDE81040FFF768BFDC84FF1FE3
:40304000625000401050004008B5084B1A78AAB90748084B0270197821F00E0040F00C01197000BF00BF044B1CE000BFDC84FF1F08380A42625000400C380A420648074B7B
:4030800000220270197821F00E0040F00C01197000BF00BF024B05E000240A421050004004240A421A7000BF00BF00BF0120187000BF00BF00BF1A7000BF00BF00BF1870D6
:4030C00000BF00BF00BF1A7000BF00BF00BF187000BF00BF00BF1A7000BF00BF00BF187000BF00BF00BF1A7000BF00BF00BF187000BF00BF00BF1A7000BF00BF00BF1870A0
:4031000000BF00BF00BF1A7000BF00BF00BF187000BF00BF00BF1A7000BF00BF00BF187000BF00BF00BF1A7000BF00BF00BF187000BF00BF00BF1A7000BF00BF00BF18705F
:4031400000BF00BF00BF1A7000BF00BF00BF187000BF00BF00BF1A7000BF00BF00BF187000BF00BF00BF1A7000BF00BF00BF187000BF00BF00BF1A7000BF00BF00BF18701F
:4031800000BF00BF00BF1A7000BF00BF00BF187000BF00BF00BF1A7000BF00BF00BF187000BF00BF00BF1A7000BF00BF00BF187000BF00BF00BF1A7000BF00BF00BF1870DF
:4031C00000BF00BF00BF1A7000BF00BF00BF187000BF00BF00BF1A7000BF00BF00BF187000BF00BF00BF084A1078FFF78FFE074B197809B9064800E00648027822F00E035F
:4032000043F00201017008BD1599FF1FDC84FF1F625000401050004030B52A4B2A4C1A782ABB2A4B2A481A7005780121257019701A700578257119701A7005782572197084
:403240001A700578257319701A700578257419701A700578257519701A700578257619701A7000781B4A18341070197026E01A4B00201A4918700D78012225701A70187027
:403280000D78174C25701A7018700D7825711A7018700D7825721A7018700D7825731A7018700D7825741A7018700D7825751A70187008780749143408701A70094B187896
:4032C00030BD00BFDC84FF1F002000220C380A4228380A421C20002204240A4220240A42042000220001002010B50D4B0446187808B90C4900E00C490A7822F00E0343F043
:4033000002000870FFF788FF2070FFF785FF6070FFF782FFA070FFF77FFFE07010BD00BFDC84FF1F625000401050004038B5564B1C78002C40F00982544D297821F00E006B
:4033400040F00C022A7008F021FA514B514D012119702A7822F00E0343F00C024E4B2A701C7000BF00BF00BF197000BF00BF00BF1C7000BF00BF00BF197000BF00BF00BF26
:403380001C7000BF00BF00BF197000BF00BF00BF1C7000BF00BF00BF197000BF00BF00BF1C7000BF00BF00BF197000BF00BF00BF1C7000BF00BF00BF197000BF00BF00BFD1
:4033C0001C7000BF00BF00BF197000BF00BF00BF1C7000BF00BF00BF197000BF00BF00BF1C7000BF00BF00BF197000BF00BF00BF1C7000BF00BF00BF197000BF00BF00BF91
:403400001C7000BF00BF00BF197000BF00BF00BF1C7000BF00BF00BF197000BF00BF00BF1C7000BF00BF00BF197000BF00BF00BF1C7000BF00BF00BF197000BF00BF00BF50
:403440001C7000BF00BF00BF197000BF00BF00BF1C7000BF00BF00BF197000BF00BF00BF1C7000BF00BF00BF197000BF00BF00BF1C7000BF00BF00BF197000BF00BF00BF10
:403480001C7000BF0AE000BFDC84FF1F6350004008380A42625000400C380A4200BF00BF197000BF00BF00BF1C7000BF00BF00BF197000BF00BF00BF1C7000BF00BF00BFFD
:4034C000197000BF00BF00BF1C7000BF00BF00BF197000BF00BF00BF1C7000BF00BF00BF197000BF00BF00BF1C7000BF00BF00BF197000BF00BF00BF1C7000BF00BF00BF90
:40350000197000BF00BF00BF1C7000BF00BF00BF197000BF00BF00BF1C7000BF00BF00BF197000BF00BF00BF1C7000BF00BF00BF197000BF00BF00BF1C7000BF00BF00BF4F
:40354000197000BF00BF00BF1C7000BF00BF00BF197000BF00BF00BF1C7000BF00BF00BF197000BF00BF00BF1C7000BF00BF00BF197000BF00BF00BF1C7000BF00BF00BF0F
:40358000197000BF00BF00BF1C7000BF00BF00BF197000BF00BF00BF1C7000BF00BF00BF197000BF00BF00BF1C7000BF00BF00BF197000BF00BF00BF1C7000BF00BF00BFCF
:4035C000197000BF00BF00BF1C7000BF00BF00BF197000BF00BF00BF1C7000BF00BF00BF197000BF00BF00BF1C7000BF00BF00BF197000BF00BF00BF1C7000BF00BF00BF8F
:40360000197000BF00BF00BF1C7000BF00BF00BF197000BF00BF00BF1C7000BF00BF00BF197000BF00BF00BF1C7000BF00BF00BF197000BF00BF00BF1C7000BF00BF00BF4E
:40364000197000BF00BF00BF1C7000BF00BF00BF197000BF00BF00BF1C7000BF00BF00BF197000BF00BF00BF1C7000BF00BF00BF197000BF00BF00BF1C7000BF00BF00BF0E
:40368000197000BF00BF00BF1C7000BF00BF00BF197000BF00BF00BF1C7000BF00BF00BF197000BF00BF00BF1C7000BF00BF00BF197000BF00BF00BF1C7000BF00BF00BFCE
:4036C000197000BF00BF00BF1C7000BF00BF00BF197000BF00BF00BF1C7000BF00BF00BF197000BF00BF00BF1C7000BF00BF00BF197000BF00BF00BF1C7000BF00BF00BF8E
:40370000197000BF00BF00BF1C7000BF00BF00BF197000BF00BF00BF1C7000BF00BF00BF197000BF00BF00BF1C7000BF00BF00BF197000BF00BF00BF08F02CF8287820F04A
:403740000E0141F002022A7038BD5548027822F00E0141F00C04047008F018F8514B524C01221A70217821F00E0343F00C014F4B21700021197000BF00BF00BF1A7000BF44
:4037800000BF00BF197000BF00BF00BF1A7000BF00BF00BF197000BF00BF00BF1A7000BF00BF00BF197000BF00BF00BF1A7000BF00BF00BF197000BF00BF00BF1A7000BFD5
:4037C00000BF00BF197000BF00BF00BF1A7000BF00BF00BF197000BF00BF00BF1A7000BF00BF00BF197000BF00BF00BF1A7000BF00BF00BF197000BF00BF00BF1A7000BF95
:4038000000BF00BF197000BF00BF00BF1A7000BF00BF00BF197000BF00BF00BF1A7000BF00BF00BF197000BF00BF00BF1A7000BF00BF00BF197000BF00BF00BF1A7000BF54
:4038400000BF00BF197000BF00BF00BF1A7000BF00BF00BF197000BF00BF00BF1A7000BF00BF00BF197000BF00BF00BF1A7000BF00BF00BF197000BF00BF00BF1A7000BF14
:4038800000BF00BF197000BF00BF00BF1A7000BF00BF00BF197000BF00BF00BF1A7007E01150004000240A421050004004240A4200BF00BF00BF197000BF00BF00BF1A7014
:4038C00000BF00BF00BF197000BF00BF00BF1A7000BF00BF00BF197000BF00BF00BF1A7000BF00BF00BF197000BF00BF00BF1A7000BF00BF00BF197000BF00BF00BF1A7094
:4039000000BF00BF00BF197000BF00BF00BF1A7000BF00BF00BF197000BF00BF00BF1A7000BF00BF00BF197000BF00BF00BF1A7000BF00BF00BF197000BF00BF00BF1A7053
:4039400000BF00BF00BF197000BF00BF00BF1A7000BF00BF00BF197000BF00BF00BF1A7000BF00BF00BF197000BF00BF00BF1A7000BF00BF00BF197000BF00BF00BF1A7013
:4039800000BF00BF00BF197000BF00BF00BF1A7000BF00BF00BF197000BF00BF00BF1A7000BF00BF00BF197000BF00BF00BF1A7000BF00BF00BF197000BF00BF00BF1A70D3
:4039C00000BF00BF00BF197000BF00BF00BF1A7000BF00BF00BF197000BF00BF00BF1A7000BF00BF00BF197000BF00BF00BF1A7000BF00BF00BF197000BF00BF00BF1A7093
:403A000000BF00BF00BF197000BF00BF00BF1A7000BF00BF00BF197000BF00BF00BF1A7000BF00BF00BF197000BF00BF00BF1A7000BF00BF00BF197000BF00BF00BF1A7052
:403A400000BF00BF00BF197000BF00BF00BF1A7000BF00BF00BF197000BF00BF00BF1A7000BF00BF00BF197000BF00BF00BF1A7000BF00BF00BF197000BF00BF00BF1A7012
:403A800000BF00BF00BF197000BF00BF00BF1A7000BF00BF00BF197000BF00BF00BF1A7000BF00BF00BF197000BF00BF00BF1A7000BF00BF00BF197000BF00BF00BF1A70D2
:403AC00000BF00BF00BF197000BF00BF00BF1A7000BF00BF00BF197000BF00BF00BF1A7000BF00BF00BF197000BF00BF00BF1A7000BF00BF00BF197000BF00BF00BF1A7092
:403B000000BF00BF00BF197000BF00BF00BF1A7000BF00BF00BF197000BF00BF00BF1A7000BF00BF00BF197000BF00BF00BF1A7000BF00BF00BF197000BF00BF00BF1A7051
:403B400000BF00BF00BF07F025FE207820F00E0242F00203237038BD38B504460078FFF7AFF905466078FFF7ABF94019C5B2A078FFF7A6F92918E078CDB2FFF7A1F92A1806
:403B800002F0010038BD000038B51C4B05461A780C4622F00E0040F00C011970184B1878FFF7B4F9FFF71CF9FFF744F9FFF718F92846FFF727FA134814B10122027000E0BF
:403BC000047011480023037000BF00BF00BF0121017000BF00BF00BF00BF00BF0B4A0370107850B1507838B99178B1EB030CDCF1000353EB0C0038BD184638BD62500040C5
:403C00001599FF1F08380A420C380A42E084FF1F2DE9F843814607F0B9FD564C0023074648462370FFF798FF0646FFF70DFAFFF7D7F8FFF7FFF85048504D817842788B0027
:403C4000007843EA420141EA00022A70FFF7C8F82D78DFF84481022D4AD0042D48D0012D66D14846FFF7CEF998F80040002C1BD1434B0EB11D7000E01E70424B00241C70EF
:403C800000BF00BF00BF01221A7000BF00BF00BF3B4804701C7000BF00BF00BF1A7000BF00BF00BF38491AE038490EB10D7000E00E70374B00241C7000BF00BF00BF01222E
:403CC0001A7000BF00BF00BF304804701C7000BF00BF00BF1A7000BF00BF00BF2D490C7824F00E0444F002040C7002701A700DE098F8002092B9244B1A7822F00E0040F076
:403D0000020119701E49012008700871194B1B4A1978107840EA01021A7025E01D48017821F00E0343F00202027018490120EBE798F800304BB9144B1A7822F00E0141F0DC
:403D40000200187001210E4808E01249087820F00E0242F002030D480B70012101700171237843F0070222703846BDE8F84307F011BD00BF1D99FF1FE084FF1F1499FF1FE6
:403D800008380A420C380A426250004000240A4204240A4210500040DC84FF1FF8B5044607F0F4FC414B002507461D70FFF74CF9FFF716F8FFF73EF83D48817842788E0059
:403DC000007846EA420343EA0002D1B2394E4B1E3170394E032B46D8DFE803F0022102212046FFF781FA35781DB93449344B0D7003E034490022344B0A7001201D78087044
:403E0000FEF7EEFF2046FFF7A7FEA84204D027490A7842F008030B702748007806E0FEF7DFFF257030786570A570E57048B9274B187820F00E0141F002021A700121244AAA
:403E400008E024490A7822F00E0343F00200224A087001211748154B1170117101781A7841EA02001CE0FEF7BBFF33784BB9174B1A7822F00E0040F002011970012014496B
:403E800008E01448017821F00E0242F00203124903700120054B087008711A7842F0070018703846BDE8F84007F074BC1D99FF1FE084FF1F1499FF1FDC84FF1F0C380A42B9
:403EC00028380A4204240A4220240A426250004008380A421050004000240A422DE9F04F054687B05A48174699460591FFF734FE02904846FFF730FE03903846FFF72CFE9C
:403F0000804607F043FC4FF0000B049064245E46059B9E4200F09580BBF1000F40F0918065BB4C4C227822F00E0141F00C0020702378494903F0FE022270087820F00E0367
:403F400043F00C020A7011F8010C20F00E0343F00C02424801F8012C012101700171642007F0D0FE237843F001022270217821F00E0040F002032370642420E0012D1ED188
:403F80003548027822F00E0141F00C04047010F8013C304C23F00E0242F00C0100F8011C2E4805700571237843F001022270217821F00E0040F00203237043F69824DFF8EC
:403FC000A4A09922029922488AF80020FFF7DCFD013CA4B28346514614B10028EFD000E060B38B20087048460399FFF7CDFDDFF874A0834610B3BB23384641468AF80030A1
:404000000193FFF7C1FD019A834638B9384641468AF80020FFF7B8FD834678B11048114A0021A52301701370FFF7B8FE0E48017801F00F03012B08BF4FF0010B0136F6B274
:4040400066E7049807F0A6FB584607B0BDE8F08FB9C90000645000406350004008380A421999FF1F1599FF1F1D99FF1F2DE9F04F054687B07D48174699460591FFF76CFD14
:4040800002904846FFF768FD03903846FFF764FD804607F07BFB4FF0000B049064245E46059B9E4200F0DA80BBF1000F40F0D68065BB6F4C227822F00E0141F00C00207072
:4040C00023786C4903F0FE022270087820F00E0343F00C020A7011F8010C20F00E0343F00C02654801F8012C012101700171642007F008FE237843F001022270217821F0B1
:404100000E0040F002032370642420E0012D1ED15848027822F00E0141F00C04047010F8013C534C23F00E0242F00C0100F8011C514805700571237843F001022270217839
:4041400021F00E0040F00203237043F69824DFF838A19922029945488AF80020FFF714FD013CA4B28346514614B10028EFD001E0002870D08B20087048460399FFF704FDFB
:40418000DFF804A18346002865D0BB23384641468AF800300093FFF7F7FC009A834630B9384641468AF80020FFF7EEFC834633494FF0000A81F800A000BF00BF00BF012074
:4041C000087000BF00BF00BF81F800A000BF00BF00BF087000BF00BF00BF81F800A000BF00BF00BF087000BF00BF00BFBBF1000F31D007F073FDFFF799F82148037823F053
:404200000E0242F00C010170009007F0BFFA03469E200193FEF77AFEE720FEF777FE019807F0B8FA009A117821F00E0343F002001070FFF77BF81348134AA52180F800A0CA
:404240001170FFF7ABFD114B187800F00F01012908BF4FF0010B0136F6B221E7049807F099FA584607B0BDE8F08F00BFB9C90000645000406350004008380A420C380A422D
:40428000625000401999FF1F1599FF1F1D99FF1F38B500230B704B708B70CB700B7102780A480C4602700A252046013DFFF776FD15F0FF05064904D00B7803F00702072AFC
:4042C000F2D0087840F02001217138BD1599FF1F1D99FF1F70B50C4B027804460E461A700A25601C013DFFF793FC15F0FF05074804D0017801F00702072AF2D0037843F038
:404300002000307070BD00BF1599FF1F1D99FF1F2DE9F04385B08146884607F037FA642507460026464500F0D780B9F1000F47D16D4B1878E0B96D4C207820F00E0242F0D3
:404340000C05257021786A4801F0FE032370027822F00E0545F00C01017010F8013C012123F00E0242F00C0500F8015C614B1BE0614C217821F00E0242F00C0525702378D2
:404380005E4903F0FE0020700A7822F00E0545F00C030B7011F8010C594B20F00E0242F00C0501F8015C012119706420197107F0A9FC2078642520F00E0141F0020323709E
:4043C000FEF7B4FF4F4850490024A52204700A70FFF7E4FC4D48013D0378ADB203F00F040DB1012CECD154210024A9228DF80C1002A80DF107018DF808208DF809408DF826
:404400000A408DF80B40FFF765FF9DF8070000F00703012B02D00136F6B283E7B12202A80DF107018DF808208DF809408DF80A408DF80B408DF80C40FFF74CFF9DF80710D0
:4044400001F007000128E6D1A323022202A80DF107018DF808308DF809208DF80A408DF80B408DF80C40FFF735FF9DF8071001F007000128CFD1032140208B2314228DF86B
:404480000B108DF80C000DF1070102A88DF808308DF809208DF80A40FFF71CFF9DF8073003F00702012AB6D1BB218DF808108DF809408DF80A408DF80B4002A880240DF1A9
:4044C00007018DF80C40FFF705FF9DF8070000F00704012C9FD100E00024384607F05AF9204605B0BDE8F083DC84FF1F645000406350004008380A42145000401150004080
:4045000000240A421999FF1F1599FF1F1D99FF1FF8B5064602200D46174604F057FB2B880446C0183880B5F9001002207118224604F0B4FB022004F09DFB3F2C034B01D849
:40454000012200E00022DA70F8BD00BFE084FF1F2DE9F84FDDF8289006468A4690461D460024B9F8002023B211B28B423EDAF018F35C03F00401CBB29BB1B5F9002001340A
:404580000AEB0201FFF784FE2888A4B2411D2980B9F800309C42E4D10022A8F800201C46DFE71FFA84FBCBEB0207BAB2511F8FB239040DD539B2081D984205DB21B2701848
:4045C000C15CF1540133F5E7A8F80020BDE8F88FB5F900200AEB0201FFF77CFE2888431C2B802FB10BF10504A4B2BAE7BDE8F88FA8F80070BDE8F88F38B505460C4601207E
:4046000004F0DCFA0128FAD12946A2B2BDE8384004F0F2BAF8B514461D4EB2F90020402716400546002E92FBF7F087B203DA731E63F03F014E1C2680002633B238B2B20163
:40464000834291B207DA09B2681801364021FFF7D3FFB6B2F1E70F4B20EAE072DB78910188B243B100B22818B4F90010FFF7C4FF00222280F8BDB4F900101AB2914205DD8E
:4046800001B26A18D15CE9540133F4E7F8BD00BF3F000080E084FF1F2DE9F3410E4C0F4FDFF844800E4E0F4D384621464246FFF72FFF3846314622462B46CDF80080FFF7A8
:4046C00047FF304621462A46FFF7A4FF012002B0BDE8F04108F094B81699FF1F1E99FF1F9297FF1F9097FF1F1299FF1F10B5154A154C13785178180913F00F0208D1FFF7CD
:4047000007FEB0F1010EDEF1000151EB0E0014E0012A02D10D4A131D03E0022A04D10C4A131FFFF7DBFB06E0032A08D1074A02F10C03FFF79BFC012801D1207010BD0020B5
:40474000207010BDA599FF1F6299FF1FBDC90000C5C9000008B500F03FFEB0F57A7F114B01D9402200E000220F48DA7001781F290BD00378012B08D002780D2A05D0017876
:40478000032902D00078112807D10849054B087808B9012203E0002201E0024B00221A7108BD00BF6299FF1FE484FF1F9783FF1F10B5164B1878012807D1154C227822F06E
:4047C0000E0343F00C0020700DE0124C217821F00E0242F00C032370207840F001012170642007F08FFA21784FF4C87001F0FE02227007F087FA237823F00E0040F00201A3
:404800002170BDE81040FEF7B9BA00BFDC84FF1F145000406450004010B50446012004F0CDF90128FAD121464022BDE8104004F0E3B9000010B5022004F056FA58B1574BB3
:404840001878012802D1FFF727FF04E002205449402204F023FA534A11781446002900F09B804B1E422B00F29380DFE803F02291252A2D303336393C4245484F5255585B7C
:4048800091915E6164676A6D707376919191919191919191919191919191919191919191919191919191919191919191917981898C00FFF74FFF6BE000F0CCF901F0DEF9BF
:4048C00066E0FFF775FF63E001F0F8F860E001F0EDF85DE001F0CCF907E001F0BBF957E001F0C8F854E001F083F92D48FFF794FF4EE001F0D3F84BE001F0A6F948E001F00A
:404900004FF9294A5178082942D9EEE701F020F93EE001F0D1F93BE001F0C8F938E001F0FFF935E001F0FEF932E001F00DFA2FE001F016FA2CE001F0B7F929E001F0A4F8C7
:4049400026E001F065F923E001F072F920E001F075F91DE001F0BEF8C7E701F081F817E011490E4B0878012818BF002018700FE00E4B0F480F4A002119800180118007E0EB
:40498000FFF7B4FE04E0084802780AB9FEF7CEFC094B00202070187010BD00BF9683FF1F6299FF1FA299FF1FA599FF1F1699FF1F9097FF1F1299FF1FA399FF1F024A034836
:4049C0000023137003707047A299FF1FA399FF1F70B51A4A0121137819488B42017003D1184B00221A8070BD174C184B25781C78144B05EB0425ACB21C80154C2578012DAA
:404A000002D11449596070BD2478022C14D1124E5860701C35780378104E1148337006781048072D0670104E1C463678467003D113B10E481170037070BD00BFA399FF1FBF
:404A4000A799FF1F749AFF1F0660004007600040016000406299FF1F02600040A499FF1F04600040A599FF1F05600040A299FF1F08B5032004F0A2F80128FAD103490320D9
:404A80004022BDE8084004F0B7B800BFF199FF1F074B1A7822F00E0040F00801197013F8012C22F00E0040F0080103F8011C7047615000401C4B1878012806D11B4A1378DF
:404AC00043F0010010701A4B1CE01A490A78032A08D00B78012B05D008780D2802D00978112909D1144A154B117801F0FE001070197801F0FE0008E00F4A137843F00100E1
:404B00000E4B1070197841F001001870117821F00E0040F00C0111701A7822F00E0040F00C011970704700BFDC84FF1F6250004063500040E484FF1F1650004017500040C7
:404B4000104B187801280DD10F490A7822F00E0343F0020008704A7822F00E0343F002004870704709490A7822F00E0343F00200087011F8012C22F00E0343F0020001F8E5
:404B8000010C7047DC84FF1F6250004017500040024B1A7802F0FC0018707047C6510040024B1A7842F0030018707047C651004038B505F0B1FCFFF7EBFF244B32251A7846
:404BC00042F00100187013F8011C01F0FE0403F8014C1E4B1A7802F01000C1B2E1B11B4C1B4D237803F0FE022270287840F001012970502007F086F82378502043F0010215
:404C0000227007F07FF8247804F01000C4B2BCB12978C1F3001413E00D4C28202378013D43F00102227007F06DF8207800F0FE012170282007F066F815F0FF05C9D1CEE7EA
:404C4000FFF7AEFF05F056FC204638BD615000406050004008B505F05FFC084B1A7822F00E0040F00201197013F8012C22F00E0040F0020103F8011C08BD00BF6150004028
:404C800008B5FFF7E7FF044B00221A7005F07CFFBDE8084006F074B9AB99FF1F2DE9F047042004F021F8002800F0E181042003F08DFFAE4CC2B22146042003F0EFFF10F009
:404CC000FF0F00F0D4812578DFF8B092A84AA94E0023022115F0200789F8003094F80180117033701BD005F00C0505F015FC0C2D01D1032009E0042D01D1092005E00DB989
:404D0000272002E0082D05D14F20012105F048FF9948057005F0EEFB0121964BAFE005F01000C3B233B1FFF743FF012818BF3846307081E105F0020101F0FF07002900F08E
:404D4000D48094F90220002A80F2CF8000F044FBB0F57A7F99F8007001D9052100E00121864CF1552278814F561CF1B2804E217030783B5C802B40F0848015F0010F804B81
:404D800037D01D781F2D0BD01878012808D01D780D2D05D01878032802D01B78112B07D1784C744B257875485D54911C017004E070480125023245542270704D6E4A2B78E2
:404DC0006C4C1178581CE154287000F005FB6E4B18802B785A1CE054D1B2000A9A1C6054D1B20020DA1C60540433D1B260542B7022E11A781F2A40F01F810130C1B27A5C2E
:404E00003170624B42B95F4802701A7802F0FE01197000F071FA0FE1012A0AD159480270197841F001021A70594B187840F001020BE0022A0FD153490A701A7842F0010018
:404E40001870534B197801F0FE021A70997841F001009870F0E0042A0ED14A4802701A7842F0010119704A4B187840F001021A70997801F0FE00ECE7187800F0FE011970C8
:404E8000DAE0812B0DD13E483A4B00785854911CC9B20C2003325854D0B2022120701954CAE0822B02D106F011FFC5E08F2B16D1FFF7D0FE35786A1CD1B27D5C31705DB928
:404EC000FFF7F8FDFFF7E4FD05F014FB31482378284A0570D554AFE0FFF732FEACE0A02B40F0AA8005F052FAA6E02A4808F03F080378002B40F09B80012007F081FCF7B1BC
:404F0000254F3B7803F01004E6B23EB1234A117801F01000C7B2002F40F0928005F076FD0A2006F0EFFEFFF743FE002840F08880104E0127307004460646814635E005F042
:404F40000404E6B205F0010156B3084A907805F029FDD0F1010138BF00210E46054808F1FF3906705FFA89F901241EE0B099FF1FAC99FF1FF199FF1FF099FF1FAA99FF1F81
:404F8000E484FF1F9783FF1FAE99FF1F0850004009500040AB99FF1F615000406050004001260029DAD13C46B94606F0EFFB012E824633D1012F31D0EB0703D404EB080111
:404FC000CEB229E0B8F1000F28D004EB090C5FFA8CF94C4507D0012005F068FD254B18550134E4B2F5E705F00806F1B2214E09B1002000E0012005F059FD30550EE01E481B
:40500000005D05F027FD1B4BD0F1010238BF0022E2541AB10134E4B2B442F0D105F008055046EDB206F0B6FB0DB105F0EFFC13480278904480F80080BDE8F047FFF718BD70
:4050400005F06AFA05F056FA0D4B05F00101987805F06CFC074AD0F1010438BF002408F1FF3A264614705FFA8AF900277CE7BDE8F08700BFF199FF1FB299FF1FAA99FF1FCF
:40508000B099FF1F2DE9F043DFF8DC91DFF8DC8199F800306F4F43F00E0089F8000098F800106D4E41F00E0288F800203C7885B044F00E053D703378684D43F00E0030702D
:4050C0002978674C41F00E022A70237843F00E00207099F8001041F0010289F8002098F8003043F0010088F80000397841F001023A70337843F001003070297841F0010248
:405100002A70237843F0010020700A2006F0E6FD99F8001001F010028DF8002098F8003003F010008DF80100397801F010028DF80220337803F010008DF80300297801F0BE
:4051400010028DF80420237803F010008DF8050099F8001001F0FE0289F8002098F8003003F0FE0088F80000397801F0FE023A70337803F0FE003070297801F0FE022A7034
:40518000237803F0FE0020700A2006F0A7FD99F8001001F010028DF8082098F8003003F010008DF80900397801F010028DF80A20337803F010008DF80B00297801F0100228
:4051C0008DF80C20237803F010008DF80D0099F8001021F00E0242F0020389F8003098F8000020F00E0141F0020288F800203B7823F00E0040F002013970327822F00E0323
:4052000043F002003070297821F00E0242F002032B702078002320F00E0141F0020222701A4602A8195C1DF8030008B1012102E00029FBD10221481E00FA03F00133121847
:40524000062BD2B2EDD1511E064AC8B2107005B0BDE8F08306500040075000401A5000401B500040E484FF1F045000400550004008B5002005F016FF002006F0E3F806F036
:40528000F5F8064B80B2B0F57A7F1880044901D2012200E000220A7008BD00BFE684FF1F9883FF1F08B506F047F806F0C3F8BDE80840FFF7DDBF0000054B197801290CBF4C
:4052C00041F2883140F6E4414843C0F30F3070479883FF1F08B5022005F0E4FE002006F0B1F806F0C3F880B2FFF7E6FF03235843C0F34E0008BD000008B50F4B18781F2852
:4053000019D10E490A78B2B9FFF7E4FF0C4BB0F57A6F187803D200F0FE00187008BD40F001011970074B1A7802F0FE001870997841F001029A7008BDE484FF1F9783FF1FF8
:40534000085000400950004038B51E4B18781F282CD11D4C217801F0FE02227003F0D4FC1A4BA0B91870FFF7B5FFB0F57A6F054609D203F0C9FCC8B9B5F57A6F16D2FFF73C
:40538000A9FF0546F5E7B0F57A6F0FD001E00220187021780E4B41F001022270187800F0FE0119709A7842F00100987007F0B8F9084BFF20197841F001021A70BDE8384093
:4053C00007F07AB9E484FF1F085000409783FF1F095000400D50004008B5012005F062FE002006F02FF806F041F880B2FFF764FF03235843C0F34E0008BD000038B5FFF763
:40540000EBFF40F69804A0420DD81C4D6B88A34209D01B4B7020197841F001021A7007F04BF96C8038BDA0F699018AB2B2F5E16F0FD2124C40F6AC556388AB421CD0104978
:405440000A7842F001000870CE2007F035F9658038BDB0F57A6F0FD9084C6088B0F57A6F0AD0074BFF20197841F001021A7007F023F94FF47A60608038BD00BF9883FF1F3B
:405480000D50004008B506F02BF8BDE8084007F08FB9000070B5894B1A781846012A04D1874B197801F0FE021A700078834B01280BD019781F2908D01A780D2A05D018785D
:4054C000032802D01B78112B01D1002000E0012007F09CF979480178032902D00278012A04D1784B197801F0FE021A7000781F2809D106F03BF8744B987020B173490A7848
:4055000002F0FE00087004F09DFF05F007FCFFF7B9FFFDF733FCFFF79DFBFFF711FB674B1978012902D01A780D2A02D1684A002304E01878032840F0B980F7E703F18044CC
:4055400004F5A0452978624E604D01F00E009855591908785F4900F00E0414725818047804F00E015C4C11741919087800F00E015A48117619180978013301F00E0182F8EB
:4055800020100132082BD9D14D4B197801F00E0286F82820524A117801F0F1011170517801F0F1015170917801F0F1019170D17801F0F101D170117901F0F10111715179B2
:4055C00001F0F1015171917901F0F1019171D17901F0F101D1712A7802F0F101414A2970117801F0F1011170917801F0F1019170517A01F0F1015172917A01F0F1019172C2
:40560000D17A01F0F101D172117B01F0F1011173517B01F0F1015173917B01F0F1019173227802F0F101304A2170117801F0F1011170517801F0F1015170917801F0F101D1
:405640009170D17801F0F101D170117901F0F1011171517901F0F1015171917901F0F1019171027802F0F10101702048027802F0F1010170427802F0F1014170827802F02E
:40568000F1018170C27802F0F101C170027902F0F1010171427902F0F1014171827902F0F1018171187800F0F1021A7006F04EFC00204021BDE8704006F04CBEE484FF1F2C
:4056C0007C5000400D500040E684FF1F08500040319AFF1F1050004018500040605000400050004009500040195000406150004038B506F01DFD574B1A78012A02D018783F
:405700000D2802D1544A002303E01978032945D1F8E703F18044504804F5A0410D781C5C25F00E0504F00E0425430D704B4959180C7824F00E05147A04F00E0425430D70A8
:40574000474959180C7824F00E05147C04F00E0425430D70434959180C7824F00E05147E04F00E0425430D703F4959180C78013324F00E0592F82040013204F00E042C4373
:40578000082B0C70C5D1394B90F828001A7800F00E0122F00E0241EA02001870FFF70EF9FFF76EFAFFF786F9314B197821F00E0242F00800187013F8011C21F00E0242F0CD
:4057C000080003F8010C04F095FEFDF78FFA05F0ABFE05F02FFE06F0FFFF00F033F904F023FE244B01211B4819700278012A04D11E4B197841F001021A700078032803D08B
:40580000144B1978012904D11B48027842F001030370104908780A461F2807D1174B997821B10E48037843F00101017012780948012A08D003780D2B05D00178032902D012
:405840000078112801D1012000E00020BDE8384006F0DCBFE484FF1F319AFF1F085000401050004018500040605000407C50004061500040DD84FF1F0D500040E684FF1FF6
:4058800010B50C4BDA781C46012A11D103F07CF938B903F0A7FEFFF7FDFDFFF729FF03F00BFF0020E0700120BDE8104006F0B4BF10BD00BFE684FF1F10B590B003F078FAA2
:4058C000002852D003F084FAB0F5612F37D8B0F5966F36D3B0F5164F27D014D8B0F5965F28D008D8B0F5966F2BD0B0F5166F24D140F2E24429E0B0F5165F18D0B0F5964FE6
:405900001BD19C2421E0B0F5613F0CD004D8B0F5614F12D1342418E0B0F5E12F14D0B0F5612F0AD10BE00C240FE04E240DE04FF49C740AE040F2712407E01A2405E00324EE
:4059400003E040F6C41400E0062405F0E7F9601E80B2012105F020FB05F0D2F905F032FA05F092FA012006F04BFF072003F026F960B1072003F02AF9C4B269460720224677
:4059800003F08CF96846214605F06CFA05F0E8F9802801D105F016FA05F0F2F90446002841D0062003F00AF901283CD11F4B402C28BF40241A78E4B2002312F0800F1C4993
:4059C00018BF00220133885CDBB21A490132A3420870D2B2F1D3184BB3F84E00C0B201F8040CB3F84E00C0F3072001F8030C93F84B0001F87C0C01F87B4CB3F84E00C0B29A
:405A000001F8020CB3F84E00C0F3072001F8010C002183F8491093F84D00084B187003480270074A117010B010BD00BF0786FF1FA79BFF1FD8600040909AFF1F5E6000403A
:405A40000986FF1F022005F011BB08B505F058F903F0A2F90C20BDE8084005F007BB0000024B03481A780270704700BFA599FF1FA083FF1F024B03481A78027000F038BA08
:405A8000A599FF1F5C9AFF1F024B03481A78027000F058BAA599FF1F5C9AFF1F024B00221A7000F05BBA00BF5C9AFF1F024B1878597800F0DFBC00BFA599FF1F08B5034B38
:405AC000187800F0CDFC0249087008BDA599FF1F6299FF1F70B51B4BF72010211E785D7800F0C8FCC120102100F0C4FCC220102100F0C0FC14480178012901D100F0E1FC4F
:405B00000024E5200E2100F0B5FCE520314600F0B1FCE520E1B200F0ADFCE520294600F0A9FCE52000F09CFC084A10550134402CE7D1054B1878012803D1BDE8704000F05A
:405B4000A3BC70BDA599FF1FA899FF1F6299FF1F70B5104B10485D780178402D28BF402501291E7801D100F0ACFC0024E2B29319AA42D8B205D2094A115D00F067FC0134C2
:405B8000F4E705480178012903D1BDE8704000F07BBC70BDA599FF1FA899FF1F6299FF1F70B5104B10485D780178402D28BF402501291E7801D100F084FC0024E2B2931984
:405BC000AA42D8B205D200F037FC084A10550134F4E705480178012903D1BDE8704000F053BC70BDA599FF1FA899FF1F6299FF1F044B054A19785878117008B1034B187046
:405C000000F024B9A599FF1F5C9AFF1F9C83FF1F044B054A19785878117008B1034B187000F03CB9A599FF1F5C9AFF1F9C83FF1F014B01221A707047A899FF1F014B18785E
:405C400000F0ECBCA599FF1F014B187800F02EB9A599FF1F044B054A19785878117008B100F0A2B900F0A8B9A599FF1F5C9AFF1F014B187800F0ACB9A599FF1F10B5084939
:405C8000084C002308784978237000F075FC30B1142006F037F8FF2000F0E2FB207010BDA599FF1F6299FF1F00F02ABA014B01221A707047A999FF1F13B5174B1878012879
:405CC00001D100F0FEFB0024144902AA635CA4F10801042002F8013DC9B2013400F076FB082CF1D10C4A1078012801D100F0CCFB00240A4B02AAE118087AA4F1100302F82A
:405D0000010DD9B20620013400F060FB102CF0D100F098FC1CBD00BFA899FF1F6299FF1F00F0FEBA064B07481A781AB1027842F0010302E0017801F0FE030370704700BF08
:405D4000A599FF1F64500040034A13785178012B9CBF024AD1547047A599FF1F5A9AFF1F054B064A1978587811709A780449054B08701A70704700BF6299FF1F9F83FF1F13
:405D80009D83FF1F9E83FF1F70B52E4B044618780E460128154601D100F093FBF8203A2100F054FBF920032100F050FBFA20314600F04CFBFB20402100F048FBFC2029469A
:405DC00000F044FBFE20562100F040FB1E49FD20097800F03BFBFF20802100F037FB194A1378012B01D100F04FFBF020214600F041FBF420032100F03DFBF520002100F058
:405E000039FBF620002100F035FBF820002100F031FBF920302100F02DFBFA20402100F029FB1221FF2000F025FB00F00BFC0A2005F068FF322000F0F1FB0A20BDE87040E5
:405E400005F060BFA899FF1F9C83FF1F10B5104B012019780022FFF797FF0E480178012901D100F02EFB002404F14002D0B200F0E3FA094B18550134402CF5D10548017876
:405E8000012903D1BDE8104000F0FEBA10BD00BF5C9AFF1FA899FF1F6299FF1F024B012019780022FFF770BF5C9AFF1F01460022072010B5FFF768FF0B4B1878012801D142
:405EC00000F0FFFAF82000F0B7FA084C2070F92000F0B2FA044960700A78012A03D1BDE8104000F0D1BA10BDA899FF1F6299FF1F10B5104B1878012801D100F0E2FA002479
:405F00000D4A04F14001C8B2115D013400F09EFA402CF5D1074B1878012801D100F0B4FA0649074A097852780220BDE81040FFF72BBF00BFA899FF1F6299FF1F5C9AFF1F55
:405F40009C83FF1F034B044A197852780A20FFF71BBF00BF5C9AFF1F9C83FF1F10B50F4B1878012801D100F0ACFA00240C4AA4F18001C8B2115D013400F068FA402CF5D172
:405F8000064B1878012801D100F07EFA054A042092780021BDE81040FFF7F6BEA899FF1F6299FF1F9C83FF1F024B0520DA780021FFF7EABE9C83FF1F034B044A1978D27874
:405FC0000320FFF7E1BE00BF5C9AFF1F9C83FF1F38B50546002206202946FFF7D5FE284B1878012801D100F06CFA264C05B3F82000F022FA2070F92000F01EFA6070FA20E4
:4060000000F01AFAA070FB2000F016FAE070FC2000F012FA2071FD2000F00EFA6071FE2000F00AFAA071FF2000F006FAE0711DE0FF2000F015FA2071F02000F011FA207088
:40604000F32000F00DFA6070F82000F0F5F9A070F92000F0F1F96278E070522A084901D0702A02D101230B7000E00D7004480278012A03D1BDE8384000F006BA38BD00BFD6
:40608000A899FF1F6299FF1F38B5032100220620FFF77AFEFB2000F0CFF90446FC2000F0CBF90546FD2000F0C7F98022034660B290FBF2F46DB203F07F02291B4A4340206A
:4060C00092FBF0F21B0648BF52000320414342430A4BC9B2D2B291422CBF08461046D9705A70987009B91421D9700AB914225A709B7813B901491420887038BD9C83FF1F30
:40610000002108B508200A46FFF73EFEBDE80840FFF7BABF054A0023054813701371017821F00E0343F00C020270704708380A426250004010B53D483D4990F90030002B7E
:4061400001DA012200E000223A4B0A7001221A700178002401FA02F1017011F0800F34491C70184614BF0A700C701A702F4B00211A7854001C7014F0800F017018462C4B47
:4061800018BF012119702B4B01221A700178002401FA02F1017011F0800F25491C70184614BF0A700C701A70204B00211A7854001C7014F0800F017018461D4B18BF012142
:4061C00019701C4B01221A700178002401FA02F1017011F0800F16491C70184614BF0A700C701A70114B1A7851000022197011F0800F027018460E4B18BF01221A700D4B5B
:4062000001221A70017801FA02F10170002011F0800F0749187014BF0A7008701A70034A10784100117000221A7010BD5D9AFF1F08380A420C380A4210F00402124B18BF87
:40624000012210B51A70012200FA02F00F4B00211A70C0B219700C4910F0040414BF0A700C701A7000221A70430013F00400064902D001220A7000E00870044B0120002150
:406280001870197010BD00BF08380A420C380A42034B0449002001221A700870187070470C380A4208380A42034B0449012200201A700A70187070470C380A4208380A42AD
:4062C00008B5FFF789F8B0F57A7F94BF0020012008BD00000F4A104800231370137101780E4A01F0FE030370117821F00E0343F00C01117012F8013C23F00E0141F0020357
:4063000002F8013C027822F00E0141F006030370704700BF08380A4264500040635000400A4B1A7822F00E0040F00201197013F8012C22F00E0040F0020103F8011C5A78BD
:4063400022F00E0040F002015970704763500040054A0023054813701371017821F00E0343F002020270704708380A426250004010B5FFF7EDFFFFF78BFFFFF789FF0F4B19
:4063800000221A7008240D48012301784A0002700B4A0C4913700B781BB1017841F001030370013C002014F0FF041070EBD1FFF7B1FEFFF779FF044A147010BD5D9AFF1F53
:4063C0000C380A4228380A4208380A42F8B504460E46154605F0DAF9072C074601D0052C0DD1FFF797FE2046124CFFF725FF2670FFF7A0FEFFF7BCFF2078287013E0062C6E
:4064000001D0042C0FD1FFF785FE2046094CFFF713FF2670FFF78EFE2B782370FFF78AFE0720FFF709FFFFF775FE3846BDE8F84005F0B0B95D9AFF1F07B501460DF107020D
:406440000520FFF7C3FF9DF807000EBD07B5034602AA02F8011D04201946FFF7B7FF0EBD07B5014607200DEB0002FFF7AFFF9DF807000EBD07B5034602AA02F8011D0620F7
:406480001946FFF7A3FF0EBD10B5F720FFF7E8FF40F010010446C9B2F720FFF7EBFFE2200021FFF7E7FFFE200021FFF7E3FFE0200021FFF7DFFFF7202146BDE81040FFF7F0
:4064C000D9BF10B5F720FFF7CBFF40F010010446C9B2F720FFF7CEFFFE200421FFF7CAFFE2200421FFF7C6FFE0200321FFF7C2FFF7202146BDE81040FFF7BCBF10B51C4BB9
:406500001C4C1878B8B1237803F0FE002070322005F0F8FB2178202041F00102227005F0F1FBFF2005F0EEFB642005F0EBFB237803F0FE0216E02178322041F00102227093
:4065400005F0E0FB237803F0FE002070202005F0D9FBFF2005F0D6FB642005F0D3FB217841F0010220202270BDE8104005F0CABBA083FF1F6450004010B50446FFF7AAFE0A
:40658000FFF7E6FE7CB9224C217821F00E0242F00C032370FFF7B2FF207820F00E0141F0020222701CE0012C1AD1194B1A7822F00E0040F002011970FFF782FE28BB154B0C
:4065C0001A78002AFBD018780028FCD10A2011490A7822B9431E13F0FF00F8D100E0A0B90D4CFFF797FDCA232370FFF7A3FD00202070FFF79FFDFFF79DFDFFF79BFDFFF7FA
:4066000099FDFFF797FD012010BD002010BD00BF6450004028380A425D9AFF1F002383420CDA074A0021117000BF00BF00BF0121117000BF00BF00BF5B18F0E7704700BF4D
:406640000C380A4208B5FFF783FE0A2005F05AFB2020FFF7E3FF0A2005F054FB044B18780028FBD10A20BDE8084005F04BBB00BF28380A42024B1A781A7C5B7C704700BF4A
:40668000A183FF1F10F4803F10B5074B01D0512400E050241C70054BC0F307241C70587059601A7210BD00BFB383FF1FEC84FF1F10F4803F10B5094B01D0512400E05024ED
:4066C0001C70074BC0F307245C72987208785960D87248781A72187310BD00BFB383FF1FEC84FF1F38B5214C637B032B37D8DFE803F002121B2D04F021FA1D4A1B4C10784E
:4067000002222146134604F05BF808B9012109E0FF23A37327E004F001FA00F00203D8B2D8B10221617318E004F008FA104861680078227A01230D4D04F09CF818B9032216
:406740006A73022100E0FF21A9730CE004F0E6F9C30702D500236373DBE70223D9E704F0EDF9002060730149887B38BDEC84FF1FB383FF1F70B5294D294C6B78581E052876
:4067800045D8DFE800F0154444031E36244C04F0D5F9287804F109010422002304F010F818B91E4B012058702FE0FF23E37332E004F0B4F900F00201CAB232B3052068704D
:4067C00023E06668627A164D3270A37A981C7070124E04F0B3F930786168227A002303F0EFFF18B906227270022100E0FF21E97311E004F093F900F00201CAB22AB10849BF
:40680000042300206B70C87305E00223CEE704F095F904216970024AD07B70BDB383FF1FEC84FF1F014BD87B704700BFEC84FF1F014B987B704700BFEC84FF1F30B50A4BD6
:4068400093F83C5600233B3DADB2EA18064CC15C92B20133A2183B2B82F80018F5D103490120087030BD00BF6786FF1FF285FF1FF8B500215C4B2022C8180131B1F5007F81
:4068800080F80028F6D190269E7045200326D8741E75F820AA26587583F8FF6183F800020F26FF2083F8010283F8020283F8030283F804624B20692683F8000683F8016624
:4068C0007420502683F8020683F8036672206F2683F8040683F805663C2410276720282601215C705F74022483F8060683F80B665420EB25552753261C7359739973197462
:406900009C751976997683F8072683F8082683F8092683F80A261D7083F8FE7183F8206683F8210683F8230683F8280683F82A067C2083F8262683F8272683F82B1658228F
:406940000E2183F82F066E2083F8292683F82D164222B62183F8360683F83A464FF0410E00247B2083F822E683F8247683F8256683F82E5683F8301683F8312683F83216F5
:4069800083F8332683F8370683F8381683F8392683F83B462346144914485A181C5C01332A2B82F80048F6D100230F4910485A181C5C0133512B82F82A48F6D100230A4AF7
:4069C0000C4899181C5C01331A2B81F87B48F6D1D0211A3082F83C16FFF730FF064A074B002010701870F8BD6786FF1F0684FF1FB583FF1F3084FF1FF285FF1FF385FF1FED
:406A00000B494FF480600B4B088003200022887001201A705A705A801A715A719A601A735A739A73DA73C8701A745A74704700BF8684FF1FFC84FF1F0346A0F13000C0B225
:406A400009280FD9A3F14102052A02D8A3F1370305E0A3F16101052903D8A3F15703D8B270470020704700002DE9F047A34E04463379062B48D018D8032B57D003D8022B9B
:406A800040F0F5827CE0042B4BD0052B40F0EF829B4AB378977C1179557992F80D9092F80E8092F801A0D67B91E1082B14D01ED3092B00F0C082FF2B40F0D982FFF7A0FF58
:406AC0008F4B00200224347198740124D8748D487471FFF7B3FEF4E08948B178877C0279457990F80D80867B90F801904EE28448B378877C0179457990F80D9090F80E801D
:406B000090F801A0C67BDAE17D48B378877C0179457990F80D9090F80E8090F801A0C67B9AE1774A937C11795279B0E074498B7C08794A79F2E0FFF775FE002840F0BA805B
:406B4000A97C714A505C3A2801D101232B716C490A79012A02D14B795A1C4A714979684B02291AD1654AD178012914D134280CD1634D6A79092A27D8614DAB7C5A1CAA7471
:406B80005F4DA87CA042D6D394E03028F0D00920107159748EE0342814E00329E8D1574AD578012D0DD100213028D170E0D0322803D0092010715D747CE01D745971197187
:406BC000D6E73028D4D0F8E100262E714B4EB378032B05D1FFF730FF68730425B57006E0FFF72AFF0121A8730320B0706970444B5A78012AC0D1597B00200D019A7B5870CE
:406C0000E8B210433D4A5179012909D148B9DD7C6DB9D97499685071CB095D1C158006E028B14FF480631380354A0025D574344D36496A888854501C82B2402A6A8002D1A7
:406C40000020687198E7802A96D10023A8686B716B80FFF72DFDFFF78DFDAA6801218032AA60264DB2F5803F697185D3B2F5003F01D303202871224B1A7B002A7FF47CAFB6
:406C80000421297178E7032A22D00133DBB2A3422FD21D48C05C3A2816D0012915D0022AF1D13028F1D016484271144A0171FF21837411711248817CA14240F0D8810021B3
:406CC00081740120BDE8F08701210132D2B2E6E70B4932288B7409480B4602D0FF22027103E00222012102711973002018715871E0E70348837401714271DBE78684FF1F55
:406D0000FC84FF1F5B83FF1FA796FF1FE896FF1F032A1FD1322911D10133DBB2A3423FD2B549C95C3A2902D0012803D100E001200132D2B2022AEBD130290EE0AF4D302920
:406D40006A71AB742871AE4A02D1092010712BE0FF20FBE70A2A08D13929DDD0A74908714A718B74FF20A64AF0E70C2AD4D1A34833298374A24A01D105210CE0342901D1C2
:406D8000062108E0352901D1072104E0362901D1082100E0FF21117100220271427103E096498B7408714A71A34240F060810021924885E79048C05D3A280BD001290AD0DC
:406DC000022D0BD1302840F086800137FFB2A742F0D3C9E001210135EDB2F1E7032D01D13228F0E7092DF0D9032B08D1FFF724FE0423BAF1010F814605D00021E5E7FFF73B
:406E00001BFE032380467D4A48EA091091190136F6B2012E08754FF0000A01D85146D4E77749977482F804A08B7082F80D9082F80E8082F801A082F80FA082F805A0D0E07C
:406E40006D48C05D3A280AD0012909D0022D0AD1342840D10137FFB2A742F1D384E001210135EDB2F2E7032D01D13028F1E7092DF0D9032B08D1FFF7DFFD0423BAF1010FD4
:406E8000814605D00021E5E7FFF7D6FD032380465A4A48EA091091190136F6B2402E08BF002516F0800F88754FF0000AB8D15146D0E7032D22D00D2D24D80137FFB2A742E6
:406EC00052D24D4AD05D3A2814D0012913D0022DEFD13028F1D0494A1171494997748B70557182F80D9082F80E8082F801A0D673FF2377E001210135EDB2E8E74328DCD003
:406F00006328E7E7032B08D1FFF796FD0423BAF1010F814605D00021CFE7FFF78DFD03238046364A48EA091091190136F6B2032E81F896004FF0000A14D9314831499774DF
:406F400082F804A0837082F80D9082F80E8082F801A082F80FA082F805A00323012203710A70A7E65146A8E7244A11712449977455718B7082F80D9082F80E8082F801A031
:406F8000D67397E6092D1BD80137FFB2A74246D21948C05D3A2827D0012A26D0022D27D13028F1D015480271154A87744571917080F80D80867380F80190FF23137179E6D3
:406FC000032921D0FFF738FD064603200B4B0C4900229F741A71887083F80D809E735A705A7103230B7165E601220135EDB2D5E7032DC7D13128D4E7A796FF1FFC84FF1F53
:407000008684FF1FDF84FF1FFFF716FDB9F1010F804602D004210022B6E70420D6E7154B1A71154A9F745D71917083F80D809E7383F801903EE6114D2C784CB9FFF7E0FC39
:407040000C490222012032718C747071CC7400E00020084D6C7C012C0AD1FFF7D1FC0648002202230371AA744471EA7429E60020BDE8F087FC84FF1F8684FF1FDF84FF1FDE
:4070800070B50025174C1848214601F04BFB2668013506F01046266042F6B10316B19D42F0D101E09D420AD1104911480B7843F020020A700B4901F035FB002070BD214674
:4070C0000B4801F02FFB206800F07041B1F1204F05D0064B1A7842F020001870EDE7012070BD00BF9885FF1F04001040639AFF1F0800104037B5134C002313484DF2B63184
:40710000019301F029FB2078012801D0002017E04FF000410D4801F01FFB21780129F5D1FFF7AEFF0A4D01282871EFD1074801A901F0F8FA20780128E8D1019A130B6B712D
:407140003EBD00BF639AFF1F08001040040010409885FF1F07B50DF1070000F063FF144B144803221A704279012A08D002D3022A10D109E09DF80720012A0BD109E09DF80C
:4071800007203AB1002204E09DF80710481E012800D81A70064B1978032906D10648027862F07F030370002000E001200EBD00BF5E9AFF1F9885FF1F639AFF1F000670B5E4
:4071C0000E46214C00F55741B631204801F0C4FA2378012B1CD17F211D4801F0BDFA2178012915D1002430194378325D817802EB032202EB014304F10055C27805F58470D4
:40720000114D03EB026101F0A7FA2878012801D0002070BD0434E4B2802CE4D10B490D4801F09AFA29780129F2D10B480B4901F093FA2B78012BEBD1FFF722FF084A411EC3
